:400000000080002011000000C1040000C104000010B500F05DFAC04610B512222C4B1A6000F094FC012000F0B1FC182000F0A8FB284A294B1A60294A116802230B4313604E
:40004000274A284B1A600024274B1C60274A136808218B431360FA20C00000F043FC244800F084FB234A244B1A60244B244A1A6080218900234A1160234A1A608022120680
:40008000224B1A60224B1C604122224B1A60013A214B1A602149082000F03EFB082000F02FFB1F4A1F4B1A60E022D2001E4B1A600132FF321D4B1A601C4B1B681B05FBD4E5
:4000C00080225200194B1A60EF3A014B1A6010BD300010400600008004010B4078002E402D3E00007C002E4064F02E406CF02E40DC050000005FEA000403014000000140A2
:4001000041FF00800003014040FF008008010B4000010B403801014030010140A50A00000000FF0108020B400C020B4010020B4070B572B60022364B1A600132354B1A700F
:4001400000240FE034486200131959000B00411889881A5AC31858880004104300F0A6F90134E4B2022CEDD9002411E02A4EA2001319590071188D8AC88A000428430A8B16
:40018000498B09041143802200F096F90134E4B2002CEBD0204920312048343000F05CF91F4A204B1A60204A204B1A6099231B041F4A1360802109051E4A11601E4A1360B5
:4001C000A42292031D4B1A6002231D4A13601D4A13601D490B783C22934314221343DBB20B701A4A117816230B43DBB213702022174B1A60174A184B1A600922174B1A6051
:40020000174A184B1A60FFF707FF00F03FF970BD6CF02E401C700F40380E0000B80F0000000030EE00000240033000000001024000500F4008500F4010500F4018500F40FB
:400240002000104000800F4001700F4000700F40000004400060DB000800044000010440B60D00000801044010B5064C2378002B07D1054B002B02D0044800E000BF01238F
:40028000237010BD5001002000000000040E0000084B10B5002B03D00749084800E000BF07480368002B00D110BD064B002BFBD09847F9E70000000054010020040E0000F6
:4002C000C00000200000000010B5064C23785B00054A985A00F072F92378013303221340237010BD6C010020C4000020F8B55F4656464D464446F0B481468846C30F9A4667
:40030000002802DA45422DB200E0050000241AE0244F63009B46DE5BFF239E435B46DE530A21280000F02AFD09B21F4B5B5C1E435B46DE530A21280000F03AFC05B2002DB5
:4003400006D00134E4B2042352469B1A9C42DFDB4B46002B09DA0134E4B212496000435AFF229343FD22134343520134E4B207E00C4A6100885AFF2303438B520134E4B2B2
:40038000032CF5D94346042B05D8064A5F00B95A01234B40BB523CBC90469946A246AB46F8BDC046C4000020080E000070B588B06A46264B0C3313CB13C213CB13C203CB01
:4003C00003C262B600F044F9214800F075F9002639E0B0003018C0B200F0C2FBA8002818C0B200F0B1FBA0002018C0B200F0C4FB73005B195B00E3189B006A469B58FA2052
:400400008000704364226A438018A10061184A008018C0180F4B9C46604400B20121FFF765FFFA20C00000F089F90134E4B200E00024012CCDD90135EDB200E00025012DE6
:40044000F6D90136F6B2012EF8D9C0E7080E0000C902000010270000F0B50025002711E0BB00C658F3B2FF22964308E06A008A181478A419527822700135013BDBB2002BF2
:40048000F4D10137072FEBD9F0BDC0460323044A1360044A13600022034B1A607047C0463000304030003140000E3F4010B50A00002100F09EFC10BD10B500F091FC10BD1F
:4004C00010B500F061FC03680C2B00D1FEE7FEE770B50F4E0F4D13E029686B68AC68002202E001C901C30432A242FAD1E868002202E0002102C304328242FAD11035013E6A
:40050000002EE9D100F046FCFFF750FFFEE7C04601000000E010000010B50E4A136801218B43136000230AE0032B03D89A000A49505800E009489900094A885001332F2B57
:40054000F2D9FFF7F5FD034A116801230B43136010BDC0460000104000000000C10400000000002010B500F01CFB0B4A117820230B43DBB2137009490A7810231A43D2B2E2
:400580000A70074A11780B43DBB2137000F00DFBFF2000F09FF810BD92000F4091000F4093000F40014B1878C0B2704761000F40014B1878C0B2704763000F40034B1B782E
:4005C0005B07FBD5024B18807047C04661000F4084100F4010B501E00E4B1B880E4B1B789B06F9D400F0DDFA0C490A78012401231A43D2B20A700A78A2430A70084A11789A
:400600000B43DBB213701378A343137000F0CDFA10BDC046A4100F4063000F4092000F4093000F4010B51F22064B1A70FFF7D2FFFFF7B8FFFFF7BCFF0023034A1370034A20
:40064000137010BD82000F4081000F4083000F4010B5064B1B78002B04D1FFF7E3FF0122024B1A70FFF77EFF10BDC0466D010020014B58647047C0460000002010B50400BA
:4006800000F08FFA044A1168044B0B40A4031C43146000F08AFA10BD00E400E0FF3FFFFF0222014B1A60704700E100E00222014B1A60704780E100E010B50400FFF7F6FFAD
:4006C0002000FFF7D5FF0320FFF7D8FFFFF7E8FF10BDC046044B1B68002BFBDB0002034B1843014B186070470000014040000080024B1B68012018407047C0460C002E40F6
:400700001F2318401E3B8340014A13607047C04600E100E001BE704770B504000D001F2802D90020FFF7F6FF1034A40080239B059C4664442068256070BDC04610B5040030
:4007400006E0084B586800F023FA074B9C46644480231B029C42F4D8024B9868604300F017FA10BDCC0000200080FFFF10B5034B1B7B584300F00CFA10BDC046CC0000200C
:40078000F0B557464E46C0B483B0040000F009FA0190E71E2D2F74D83F4B1B78DBB29C4208D83E4B1B78DBB29A463D4B1B78DBB2994631E03B4B1B78DBB29C4208D83A4B15
:4007C0001B78DBB29A46394B1B78DBB2994623E0374B1B78DBB29C4208D8364B1B78DBB29A46354B1B78DBB2994615E0334B1B78DBB29C4208D8324B1B78DBB29A46314BC9
:400800001B78DBB2994607E02F4B1B78DBB29A462E4B1B78DBB299462D4BDE5D2F2E09D92A2C07D919222B4B1A60052000F0B0F9192503E0274B1D683F231D40B54206D922
:40084000234BDA5D234B1A60052000F0A1F91F4B9C4664442378DBB21F4A13601F4B52461A601F4B4A461A600520FFF77FFFB5420AD2174BDA5D174B1A60052000F088F9DD
:4008800002E00020FFF746FF019800F08EF903B00CBC91469A46F0BD40F3FF0F41F3FF0F42F3FF0F43F3FF0F44F3FF0F45F3FF0F46F3FF0F47F3FF0F48F3FF0F49F3FF0F55
:4008C0004AF3FF0F4BF3FF0F4CF3FF0F4DF3FF0F8C1000002CFF0B4028FF0B401CFF0B4020FF0B4010B504000F4A116801230B4313600E4A0E4B1A600E4A13688021090248
:400900000B431360002809D100200CE00120FFF72DFFFFF7EDFE002804D1013C002CF5D1102000E0002010BD60F02E400220000078002E4010002E40034B1868C0231B0289
:40094000184000D00120704700010B4010B50D4B1A6801218A431A601A68022082431A60094A10683024A043203C204310601068093CA043014311601A68802109060A433B
:400980001A6010BD00F02E4000FF2E4070B51D4B1B6801241C40002802D0012816D02BE0184B19680122914319601968022081431960154B19682E30814320380143196034
:4009C0001968093881430A431A6018E00D4B1A6802218A431A600C4A10680725A84301431160116830208143103801431160196801220A431A6002E00020FFF78BFE20003E
:400A000070BDC04600F02E4000FF2E4010B500F0C8F8044A1368C02109020B43136000F0C4F810BD00010B4010B500F0BAF808490A68084B1A408024E40122430A600A6867
:400A400013408022120213430B6000F0AEF810BD00010B40FF3FFFFF70B5050000F0A1F80400FFF769FF002803D0FFF7DDFF012100E0002108482840084A1568084B2B4077
:400A8000184310601368012901D1FFF7BFFF200000F08BF870BDC0460404040010020B40FBFBFBFF10B5244B1B685B0715D5234B5B685B070ED5224B596A042001401F4CA8
:400AC00062688A4362605A6A82435A629B69002B00D098470420FFF7BFFF174B1B685B0518D5164B5B685B0510D5154B596A8022D2001140114842688A434260596A114A8F
:400B00000A405A62DB69002B00D098478020C000FFF7A2FF084B1B685B030CD5074B5B685B0304D5064B1B6A002B00D098478020C002FFF791FF10BD10020B40E000002077
:400B400070010020FFFBFFFF04490A68D2B202239A43400018401043086070470001044004490A68D2B204239A43800018401043086070470001044004490A68D2B210230C
:400B80009A4300011840104308607047000004400230800803D00138FDD1C046C046C0467047EFF3108072B6704780F31088704703460B437FD4002243088B4274D3030962
:400BC0008B425FD3030A8B4244D3030B8B4228D3030C8B420DD3FF22090212BA030C8B4202D31212090265D0030B8B4219D300E0090AC30B8B4201D3CB03C01A5241830B74
:400C00008B4201D38B03C01A5241430B8B4201D34B03C01A5241030B8B4201D30B03C01A5241C30A8B4201D3CB02C01A5241830A8B4201D38B02C01A5241430A8B4201D386
:400C40004B02C01A5241030A8B4201D30B02C01A5241CDD2C3098B4201D3CB01C01A524183098B4201D38B01C01A524143098B4201D34B01C01A524103098B4201D30B01C8
:400C8000C01A5241C3088B4201D3CB00C01A524183088B4201D38B00C01A524143088B4201D34B00C01A5241411A00D201465241104670475DE0CA0F00D04942031000D3F0
:400CC0004042534000229C4603098B422DD3030A8B4212D3FC22890112BA030A8B420CD3890192118B4208D3890192118B4204D389013AD0921100E08909C3098B4201D35A
:400D0000CB01C01A524183098B4201D38B01C01A524143098B4201D34B01C01A524103098B4201D30B01C01A5241C3088B4201D3CB00C01A524183088B4201D38B00C01A53
:400D40005241D9D243088B4201D34B00C01A5241411A00D20146634652415B10104601D34042002B00D54942704763465B1000D3404201B5002000F005F802BD0029F8D0AC
:400D800016E770477047C046014B18687047C046480100200E4B70B500251E000D4CE41AA410A54204D0AB00F35898470135F8E700F084F9084B00251E00084CE41AA41056
:400DC000A54204D0AB00F35898470135F8E770BDC8100000C8100000C8100000D0100000002310B59A4203D0CC5CC4540133F9E710BD03008218934202D019700133FAE71F
:400E00007047000000000000039F250D9949411F010900000000000001000000000000000000000000000000010000000100000000000000FD00000000300F4000028032A8
:400E40000F40800100400F400004000000320F400C10000080000000821F3A0358045C035F018438884D8A10945095039627970C99059A029B0A9D029F0DA854AA2BAD0941
:400E8000AF06B23CB403B640B70FB808BB80BE40D409D804D904DB04DC11DD10DF01050407080E080F201280130117201A801D441E0826802F02368037285C205E425F042E
:400EC0006540C060C260C440CA10CC70D6F0D810801B84C4862888228A448C1A8E019084921098809C049E1AA01BA41BA81BAE01B0E0B201B4E0B61EBAA2BE04C064C10342
:400F0000C210C50EC6F0C7DCC839C9FFCAFFCBFFCC22CEF0CF48D004D440D804DA04DB04DC01DD11DF01E2C0E440E502E610E712E8C0E902EB12EC40ED02EE40EF020355AA
:400F400005100602076008200A820B080EA00F0A108A11041514170118101A821B131D901E422658273C2F86364037293C803D043E104180430645804728480249404A0856
:400F80004B044F285002512053046010616067016C086D146E106FC174C076028D048E0493019640970499049C209D109F28A204A601A712AA40B510C0FFC2FBC47FCAB086
:400FC000CCF0CE70D07BD224D81EE250EA406308D840500457046F088C048F04A308AB08B704D460DA80EE80010A100A01000F4022300F4019310F4037320F4048330F4052
:4010000002400F400B410F4002600F40090000001498200202020098099A0000089800020E137064C02100D8AC3812C0089A0100090000000102080000FC00031000000FE2
:40104000FE1301E0200000880000410026031000000B000001FFFFFF03007048040000000000022004040404111100010000C00040021012C00200124002400200000000C3
:40108000000000000000000000000000030405060708090A0B0C0E0F101112131415161718191B1C1D1E1F2021222325262728292A2B2E2F3031323334354300F8B5C0464A
:4010C000F8BC08BC9E4670479102000019050000F8B5C046F8BC08BC9E46704769020000F0100000C0000020900000004800000000000000FF10FF20FF40FF800100000056
:401100000000E02EC05D00001800000000366E01F0000000040404000000000000000000000000000000000000000000000000000000000000000000BA1000000000000001
:401140000000000000000000000000000000000000000000000000000000000000000000000000000000000000000000000000000000000000000000E80000200000000067
:40118000000000000000000000000000000000000000000000000000000000000000000000000000000000000000000000000000000000000000000000000000000000002F
:4011C00000000000000000000000000000000000000000000000000000000000000000000000000000000000000000000000000000000000000000000000000000000000EF
:4012000000000000000000000000000000000000000000000000000000000000000000000000000000000000000000000000000000000000000000000000000000000000AE
:40124000000000000000000000000000000000000000000000000000000000000000000000000000000000000000000000000000000000000000000000000000000000006E
:020000040003F7
:0200000490303A
:020000007D3A47
:0200000490402A
:4000000000000000000000000000000000000000000000000000000000000000000000000000000000000000000000000000000000000000000000000000000000000000C0
:400040000000000000000000000000000000000000000000000000000000000000000000000000000000000000000000000000000000000000000000000000000000000080
:0200000490501A
:0C00000000021A1711AA00011A1C8EE45D
:0200000490600A
:0100000001FE
:00000001FF